{
  "_format": "hh-sol-artifact-1",
  "contractName": "Election",
  "sourceName": "contracts/votingSC.sol",
  "abi": [
    {
      "inputs": [],
      "stateMutability": "nonpayable",
      "type": "constructor"
    },
    {
      "inputs": [
        {
          "internalType": "string",
          "name": "candidateName",
          "type": "string"
        }
      ],
      "name": "addNewCandidate",
      "outputs": [],
      "stateMutability": "nonpayable",
      "type": "function"
    },
    {
      "inputs": [],
      "name": "admin",
      "outputs": [
        {
          "internalType": "address",
          "name": "",
          "type": "address"
        }
      ],
      "stateMutability": "view",
      "type": "function"
    },
    {
      "inputs": [
        {
          "internalType": "uint256",
          "name": "",
          "type": "uint256"
        }
      ],
      "name": "candidates",
      "outputs": [
        {
          "internalType": "string",
          "name": "name",
          "type": "string"
        },
        {
          "internalType": "uint256",
          "name": "voteCount",
          "type": "uint256"
        }
      ],
      "stateMutability": "view",
      "type": "function"
    },
    {
      "inputs": [
        {
          "internalType": "uint256",
          "name": "candidateIndex",
          "type": "uint256"
        }
      ],
      "name": "castVote",
      "outputs": [],
      "stateMutability": "nonpayable",
      "type": "function"
    },
    {
      "inputs": [
        {
          "internalType": "string[]",
          "name": "candidateNames",
          "type": "string[]"
        },
        {
          "internalType": "uint256",
          "name": "votingStartTime",
          "type": "uint256"
        },
        {
          "internalType": "uint256",
          "name": "votingEndTime",
          "type": "uint256"
        },
        {
          "internalType": "uint256",
          "name": "minVotes",
          "type": "uint256"
        }
      ],
      "name": "contestants",
      "outputs": [],
      "stateMutability": "nonpayable",
      "type": "function"
    },
    {
      "inputs": [],
      "name": "endVoting",
      "outputs": [],
      "stateMutability": "nonpayable",
      "type": "function"
    },
    {
      "inputs": [],
      "name": "getAdmin",
      "outputs": [
        {
          "internalType": "address",
          "name": "",
          "type": "address"
        }
      ],
      "stateMutability": "view",
      "type": "function"
    },
    {
      "inputs": [
        {
          "internalType": "uint256",
          "name": "candidateIndex",
          "type": "uint256"
        }
      ],
      "name": "getCandidate",
      "outputs": [
        {
          "internalType": "string",
          "name": "",
          "type": "string"
        },
        {
          "internalType": "uint256",
          "name": "",
          "type": "uint256"
        }
      ],
      "stateMutability": "view",
      "type": "function"
    },
    {
      "inputs": [],
      "name": "getCandidateCount",
      "outputs": [
        {
          "internalType": "uint256",
          "name": "",
          "type": "uint256"
        }
      ],
      "stateMutability": "view",
      "type": "function"
    },
    {
      "inputs": [],
      "name": "getListingPrice",
      "outputs": [
        {
          "internalType": "uint256",
          "name": "",
          "type": "uint256"
        }
      ],
      "stateMutability": "view",
      "type": "function"
    },
    {
      "inputs": [],
      "name": "getRegisteredVoters",
      "outputs": [
        {
          "internalType": "address[]",
          "name": "",
          "type": "address[]"
        }
      ],
      "stateMutability": "view",
      "type": "function"
    },
    {
      "inputs": [
        {
          "internalType": "address",
          "name": "voter",
          "type": "address"
        }
      ],
      "name": "getVotedFor",
      "outputs": [
        {
          "internalType": "uint256",
          "name": "",
          "type": "uint256"
        }
      ],
      "stateMutability": "view",
      "type": "function"
    },
    {
      "inputs": [
        {
          "internalType": "address",
          "name": "voter",
          "type": "address"
        }
      ],
      "name": "getVoterHasVoted",
      "outputs": [
        {
          "internalType": "bool",
          "name": "",
          "type": "bool"
        }
      ],
      "stateMutability": "view",
      "type": "function"
    },
    {
      "inputs": [],
      "name": "getWinner",
      "outputs": [
        {
          "internalType": "string",
          "name": "",
          "type": "string"
        }
      ],
      "stateMutability": "view",
      "type": "function"
    },
    {
      "inputs": [],
      "name": "isVotingOpen",
      "outputs": [
        {
          "internalType": "bool",
          "name": "",
          "type": "bool"
        }
      ],
      "stateMutability": "view",
      "type": "function"
    },
    {
      "inputs": [],
      "name": "listingPrice",
      "outputs": [
        {
          "internalType": "uint256",
          "name": "",
          "type": "uint256"
        }
      ],
      "stateMutability": "view",
      "type": "function"
    },
    {
      "inputs": [],
      "name": "minimumVotes",
      "outputs": [
        {
          "internalType": "uint256",
          "name": "",
          "type": "uint256"
        }
      ],
      "stateMutability": "view",
      "type": "function"
    },
    {
      "inputs": [
        {
          "internalType": "string",
          "name": "candidateName",
          "type": "string"
        }
      ],
      "name": "newCandidates",
      "outputs": [],
      "stateMutability": "nonpayable",
      "type": "function"
    },
    {
      "inputs": [],
      "name": "registerVoter",
      "outputs": [],
      "stateMutability": "nonpayable",
      "type": "function"
    },
    {
      "inputs": [],
      "name": "totalVotes",
      "outputs": [
        {
          "internalType": "uint256",
          "name": "",
          "type": "uint256"
        }
      ],
      "stateMutability": "view",
      "type": "function"
    },
    {
      "inputs": [
        {
          "internalType": "address",
          "name": "",
          "type": "address"
        }
      ],
      "name": "voters",
      "outputs": [
        {
          "internalType": "bool",
          "name": "isRegistered",
          "type": "bool"
        },
        {
          "internalType": "bool",
          "name": "hasVoted",
          "type": "bool"
        },
        {
          "internalType": "uint256",
          "name": "votedFor",
          "type": "uint256"
        }
      ],
      "stateMutability": "view",
      "type": "function"
    },
    {
      "inputs": [],
      "name": "votingEnd",
      "outputs": [
        {
          "internalType": "uint256",
          "name": "",
          "type": "uint256"
        }
      ],
      "stateMutability": "view",
      "type": "function"
    },
    {
      "inputs": [],
      "name": "votingStart",
      "outputs": [
        {
          "internalType": "uint256",
          "name": "",
          "type": "uint256"
        }
      ],
      "stateMutability": "view",
      "type": "function"
    }
  ],
  "bytecode": "0x6080604052650246139ca80060005534801561001a57600080fd5b5033600160006101000a81548173ffffffffffffffffffffffffffffffffffffffff021916908373ffffffffffffffffffffffffffffffffffffffff1602179055506122748061006b6000396000f3fe608060405234801561001057600080fd5b506004361061014d5760003560e01c80636dbf65b1116100c3578063c78f19f91161007c578063c78f19f914610382578063caaea3e4146103a0578063da9d5c92146103bc578063ecb617d9146103ec578063f851a440146103f6578063fa7f1bae146104145761014d565b80636dbf65b1146102d05780636e9960c3146102ec57806385a386351461030a5780638e7ea5b214610328578063a3ec138d14610346578063c3403ddf146103785761014d565b806330a563471161011557806330a56347146101e65780633477ee2e1461020457806335b8e820146102355780633eb76b9c146102665780636407e0d41461028257806368797beb146102a05761014d565b80630d15fd7714610152578063101158af1461017057806312e855851461018e5780632bc4a6e7146101ac5780632d307d60146101ca575b600080fd5b61015a610432565b604051610167919061150c565b60405180910390f35b610178610438565b604051610185919061150c565b60405180910390f35b61019661043e565b6040516101a3919061150c565b60405180910390f35b6101b4610447565b6040516101c19190611617565b60405180910390f35b6101e460048036038101906101df9190611793565b6104d5565b005b6101ee610622565b6040516101fb919061150c565b60405180910390f35b61021e60048036038101906102199190611808565b61062f565b60405161022c9291906118bd565b60405180910390f35b61024f600480360381019061024a9190611808565b6106eb565b60405161025d9291906118bd565b60405180910390f35b610280600480360381019061027b9190611808565b610816565b005b61028a610ac3565b604051610297919061150c565b60405180910390f35b6102ba60048036038101906102b59190611919565b610ac9565b6040516102c79190611961565b60405180910390f35b6102ea60048036038101906102e59190611793565b610b22565b005b6102f4610c2d565b604051610301919061198b565b60405180910390f35b610312610c57565b60405161031f919061150c565b60405180910390f35b610330610c5d565b60405161033d91906119a6565b60405180910390f35b610360600480360381019061035b9190611919565b610de4565b60405161036f939291906119c8565b60405180910390f35b610380610e28565b005b61038a610f61565b604051610397919061150c565b60405180910390f35b6103ba60048036038101906103b59190611ae5565b610f67565b005b6103d660048036038101906103d19190611919565b611199565b6040516103e3919061150c565b60405180910390f35b6103f46111e5565b005b6103fe611384565b60405161040b919061198b565b60405180910390f35b61041c6113aa565b6040516104299190611961565b60405180910390f35b60085481565b60045481565b60008054905090565b606060098054806020026020016040519081016040528092919081815260200182805480156104cb57602002820191906000526020600020905b8160009054906101000a900473ffffffffffffffffffffffffffffffffffffffff1673ffffffffffffffffffffffffffffffffffffffff1681526020019060010190808311610481575b5050505050905090565b600160009054906101000a900473ffffffffffffffffffffffffffffffffffffffff1673ffffffffffffffffffffffffffffffffffffffff163373ffffffffffffffffffffffffffffffffffffffff1614610565576040517f08c379a000000000000000000000000000000000000000000000000000000000815260040161055c90611bda565b60405180910390fd5b600760009054906101000a900460ff16156105b5576040517f08c379a00000000000000000000000000000000000000000000000000000000081526004016105ac90611c6c565b60405180910390fd5b600360405180604001604052808381526020016000815250908060018154018082558091505060019003906000526020600020906002020160009091909190915060008201518160000190805190602001906106129291906113bd565b5060208201518160010155505050565b6000600380549050905090565b6003818154811061063f57600080fd5b906000526020600020906002020160009150905080600001805461066290611cbb565b80601f016020809104026020016040519081016040528092919081815260200182805461068e90611cbb565b80156106db5780601f106106b0576101008083540402835291602001916106db565b820191906000526020600020905b8154815290600101906020018083116106be57829003601f168201915b5050505050908060010154905082565b606060006003805490508310610736576040517f08c379a000000000000000000000000000000000000000000000000000000000815260040161072d90611d39565b60405180910390fd5b6003838154811061074a57610749611d59565b5b90600052602060002090600202016000016003848154811061076f5761076e611d59565b5b90600052602060002090600202016001015481805461078d90611cbb565b80601f01602080910402602001604051908101604052809291908181526020018280546107b990611cbb565b80156108065780601f106107db57610100808354040283529160200191610806565b820191906000526020600020905b8154815290600101906020018083116107e957829003601f168201915b5050505050915091509150915091565b600760009054906101000a900460ff16610865576040517f08c379a000000000000000000000000000000000000000000000000000000000815260040161085c90611dd4565b60405180910390fd5b600260003373ffffffffffffffffffffffffffffffffffffffff1673ffffffffffffffffffffffffffffffffffffffff16815260200190815260200160002060000160009054906101000a900460ff166108f4576040517f08c379a00000000000000000000000000000000000000000000000000000000081526004016108eb90611e40565b60405180910390fd5b600260003373ffffffffffffffffffffffffffffffffffffffff1673ffffffffffffffffffffffffffffffffffffffff16815260200190815260200160002060000160019054906101000a900460ff1615610984576040517f08c379a000000000000000000000000000000000000000000000000000000000815260040161097b90611eac565b60405180910390fd5b60038054905081106109cb576040517f08c379a00000000000000000000000000000000000000000000000000000000081526004016109c290611d39565b60405180910390fd5b6001600260003373ffffffffffffffffffffffffffffffffffffffff1673ffffffffffffffffffffffffffffffffffffffff16815260200190815260200160002060000160016101000a81548160ff02191690831515021790555080600260003373ffffffffffffffffffffffffffffffffffffffff1673ffffffffffffffffffffffffffffffffffffffff1681526020019081526020016000206001018190555060038181548110610a8157610a80611d59565b5b90600052602060002090600202016001016000815480929190610aa390611efb565b919050555060086000815480929190610abb90611efb565b919050555050565b60065481565b6000600260008373ffffffffffffffffffffffffffffffffffffffff1673ffffffffffffffffffffffffffffffffffffffff16815260200190815260200160002060000160019054906101000a900460ff169050919050565b600160009054906101000a900473ffffffffffffffffffffffffffffffffffffffff1673ffffffffffffffffffffffffffffffffffffffff163373ffffffffffffffffffffffffffffffffffffffff1614610bb2576040517f08c379a0000000000000000000000000000000000000000000000000000000008152600401610ba990611bda565b60405180910390fd5b60036000610bc09190611443565b60036040518060400160405280838152602001600081525090806001815401808255809150506001900390600052602060002090600202016000909190919091506000820151816000019080519060200190610c1d9291906113bd565b5060208201518160010155505050565b6000600160009054906101000a900473ffffffffffffffffffffffffffffffffffffffff16905090565b60055481565b6060600760009054906101000a900460ff1615610caf576040517f08c379a0000000000000000000000000000000000000000000000000000000008152600401610ca690611f90565b60405180910390fd5b60008060005b600380549050811015610d2e578260038281548110610cd757610cd6611d59565b5b9060005260206000209060020201600101541115610d1b5760038181548110610d0357610d02611d59565b5b90600052602060002090600202016001015492508091505b8080610d2690611efb565b915050610cb5565b5060038181548110610d4357610d42611d59565b5b90600052602060002090600202016000018054610d5f90611cbb565b80601f0160208091040260200160405190810160405280929190818152602001828054610d8b90611cbb565b8015610dd85780601f10610dad57610100808354040283529160200191610dd8565b820191906000526020600020905b815481529060010190602001808311610dbb57829003601f168201915b50505050509250505090565b60026020528060005260406000206000915090508060000160009054906101000a900460ff16908060000160019054906101000a900460ff16908060010154905083565b600160009054906101000a900473ffffffffffffffffffffffffffffffffffffffff1673ffffffffffffffffffffffffffffffffffffffff163373ffffffffffffffffffffffffffffffffffffffff1614610eb8576040517f08c379a0000000000000000000000000000000000000000000000000000000008152600401610eaf90611bda565b60405180910390fd5b600554421015610efd576040517f08c379a0000000000000000000000000000000000000000000000000000000008152600401610ef490611f90565b60405180910390fd5b6006546008541015610f44576040517f08c379a0000000000000000000000000000000000000000000000000000000008152600401610f3b90611ffc565b60405180910390fd5b6000600760006101000a81548160ff021916908315150217905550565b60005481565b600160009054906101000a900473ffffffffffffffffffffffffffffffffffffffff1673ffffffffffffffffffffffffffffffffffffffff163373ffffffffffffffffffffffffffffffffffffffff1614610ff7576040517f08c379a0000000000000000000000000000000000000000000000000000000008152600401610fee90611bda565b60405180910390fd5b600084511161103b576040517f08c379a00000000000000000000000000000000000000000000000000000000081526004016110329061208e565b60405180910390fd5b81831061107d576040517f08c379a000000000000000000000000000000000000000000000000000000000815260040161107490612120565b60405180910390fd5b8242116110bf576040517f08c379a00000000000000000000000000000000000000000000000000000000081526004016110b6906121b2565b60405180910390fd5b60005b845181101561116257600360405180604001604052808784815181106110eb576110ea611d59565b5b602002602001015181526020016000815250908060018154018082558091505060019003906000526020600020906002020160009091909190915060008201518160000190805190602001906111429291906113bd565b50602082015181600101555050808061115a90611efb565b9150506110c2565b508260048190555081600581905550806006819055506001600760006101000a81548160ff02191690831515021790555050505050565b6000600260008373ffffffffffffffffffffffffffffffffffffffff1673ffffffffffffffffffffffffffffffffffffffff168152602001908152602001600020600101549050919050565b600760009054906101000a900460ff16611234576040517f08c379a000000000000000000000000000000000000000000000000000000000815260040161122b90611dd4565b60405180910390fd5b600260003373ffffffffffffffffffffffffffffffffffffffff1673ffffffffffffffffffffffffffffffffffffffff16815260200190815260200160002060000160009054906101000a900460ff16156112c4576040517f08c379a00000000000000000000000000000000000000000000000000000000081526004016112bb9061221e565b60405180910390fd5b6001600260003373ffffffffffffffffffffffffffffffffffffffff1673ffffffffffffffffffffffffffffffffffffffff16815260200190815260200160002060000160006101000a81548160ff0219169083151502179055506009339080600181540180825580915050600190039060005260206000200160009091909190916101000a81548173ffffffffffffffffffffffffffffffffffffffff021916908373ffffffffffffffffffffffffffffffffffffffff160217905550565b600160009054906101000a900473ffffffffffffffffffffffffffffffffffffffff1681565b600760009054906101000a900460ff1681565b8280546113c990611cbb565b90600052602060002090601f0160209004810192826113eb5760008555611432565b82601f1061140457805160ff1916838001178555611432565b82800160010185558215611432579182015b82811115611431578251825591602001919060010190611416565b5b50905061143f9190611467565b5090565b50805460008255600202906000526020600020908101906114649190611484565b50565b5b80821115611480576000816000905550600101611468565b5090565b5b808211156114af576000808201600061149e91906114b3565b600182016000905550600201611485565b5090565b5080546114bf90611cbb565b6000825580601f106114d157506114f0565b601f0160209004906000526020600020908101906114ef9190611467565b5b50565b6000819050919050565b611506816114f3565b82525050565b600060208201905061152160008301846114fd565b92915050565b600081519050919050565b600082825260208201905092915050565b6000819050602082019050919050565b600073ffffffffffffffffffffffffffffffffffffffff82169050919050565b600061157e82611553565b9050919050565b61158e81611573565b82525050565b60006115a08383611585565b60208301905092915050565b6000602082019050919050565b60006115c482611527565b6115ce8185611532565b93506115d983611543565b8060005b8381101561160a5781516115f18882611594565b97506115fc836115ac565b9250506001810190506115dd565b5085935050505092915050565b6000602082019050818103600083015261163181846115b9565b905092915050565b6000604051905090565b600080fd5b600080fd5b600080fd5b600080fd5b6000601f19601f8301169050919050565b7f4e487b7100000000000000000000000000000000000000000000000000000000600052604160045260246000fd5b6116a082611657565b810181811067ffffffffffffffff821117156116bf576116be611668565b5b80604052505050565b60006116d2611639565b90506116de8282611697565b919050565b600067ffffffffffffffff8211156116fe576116fd611668565b5b61170782611657565b9050602081019050919050565b82818337600083830152505050565b6000611736611731846116e3565b6116c8565b90508281526020810184848401111561175257611751611652565b5b61175d848285611714565b509392505050565b600082601f83011261177a5761177961164d565b5b813561178a848260208601611723565b91505092915050565b6000602082840312156117a9576117a8611643565b5b600082013567ffffffffffffffff8111156117c7576117c6611648565b5b6117d384828501611765565b91505092915050565b6117e5816114f3565b81146117f057600080fd5b50565b600081359050611802816117dc565b92915050565b60006020828403121561181e5761181d611643565b5b600061182c848285016117f3565b91505092915050565b600081519050919050565b600082825260208201905092915050565b60005b8381101561186f578082015181840152602081019050611854565b8381111561187e576000848401525b50505050565b600061188f82611835565b6118998185611840565b93506118a9818560208601611851565b6118b281611657565b840191505092915050565b600060408201905081810360008301526118d78185611884565b90506118e660208301846114fd565b9392505050565b6118f681611573565b811461190157600080fd5b50565b600081359050611913816118ed565b92915050565b60006020828403121561192f5761192e611643565b5b600061193d84828501611904565b91505092915050565b60008115159050919050565b61195b81611946565b82525050565b60006020820190506119766000830184611952565b92915050565b61198581611573565b82525050565b60006020820190506119a0600083018461197c565b92915050565b600060208201905081810360008301526119c08184611884565b905092915050565b60006060820190506119dd6000830186611952565b6119ea6020830185611952565b6119f760408301846114fd565b949350505050565b600067ffffffffffffffff821115611a1a57611a19611668565b5b602082029050602081019050919050565b600080fd5b6000611a43611a3e846119ff565b6116c8565b90508083825260208201905060208402830185811115611a6657611a65611a2b565b5b835b81811015611aad57803567ffffffffffffffff811115611a8b57611a8a61164d565b5b808601611a988982611765565b85526020850194505050602081019050611a68565b5050509392505050565b600082601f830112611acc57611acb61164d565b5b8135611adc848260208601611a30565b91505092915050565b60008060008060808587031215611aff57611afe611643565b5b600085013567ffffffffffffffff811115611b1d57611b1c611648565b5b611b2987828801611ab7565b9450506020611b3a878288016117f3565b9350506040611b4b878288016117f3565b9250506060611b5c878288016117f3565b91505092959194509250565b7f536f727279204f6e6c792041646d696e6973747261746f722063616e2070657260008201527f666f726d2074686973206f7065726174696f6e00000000000000000000000000602082015250565b6000611bc4603383611840565b9150611bcf82611b68565b604082019050919050565b60006020820190508181036000830152611bf381611bb7565b9050919050565b7f536f72727920796f752063616e6e6f7420616464206e65772063616e6469646160008201527f746520616674657220766f74696e672068617320737461727465640000000000602082015250565b6000611c56603b83611840565b9150611c6182611bfa565b604082019050919050565b60006020820190508181036000830152611c8581611c49565b9050919050565b7f4e487b7100000000000000000000000000000000000000000000000000000000600052602260045260246000fd5b60006002820490506001821680611cd357607f821691505b60208210811415611ce757611ce6611c8c565b5b50919050565b7f496e76616c69642063616e64696461746520696e646578000000000000000000600082015250565b6000611d23601783611840565b9150611d2e82611ced565b602082019050919050565b60006020820190508181036000830152611d5281611d16565b9050919050565b7f4e487b7100000000000000000000000000000000000000000000000000000000600052603260045260246000fd5b7f566f74696e6720697320636c6f73656400000000000000000000000000000000600082015250565b6000611dbe601083611840565b9150611dc982611d88565b602082019050919050565b60006020820190508181036000830152611ded81611db1565b9050919050565b7f566f746572206973206e6f742072656769737465726564000000000000000000600082015250565b6000611e2a601783611840565b9150611e3582611df4565b602082019050919050565b60006020820190508181036000830152611e5981611e1d565b9050919050565b7f566f7465722068617320616c726561647920766f746564000000000000000000600082015250565b6000611e96601783611840565b9150611ea182611e60565b602082019050919050565b60006020820190508181036000830152611ec581611e89565b9050919050565b7f4e487b7100000000000000000000000000000000000000000000000000000000600052601160045260246000fd5b6000611f06826114f3565b91507fffffffffffffffffffffffffffffffffffffffffffffffffffffffffffffffff821415611f3957611f38611ecc565b5b600182019050919050565b7f566f74696e6720686173206e6f7420656e646564207965740000000000000000600082015250565b6000611f7a601883611840565b9150611f8582611f44565b602082019050919050565b60006020820190508181036000830152611fa981611f6d565b9050919050565b7f4e6f7420656e6f75676820766f74657300000000000000000000000000000000600082015250565b6000611fe6601083611840565b9150611ff182611fb0565b602082019050919050565b6000602082019050818103600083015261201581611fd9565b9050919050565b7f5468657265206d757374206265206174206c65617374206f6e652063616e646960008201527f6461746500000000000000000000000000000000000000000000000000000000602082015250565b6000612078602483611840565b91506120838261201c565b604082019050919050565b600060208201905081810360008301526120a78161206b565b9050919050565b7f566f74696e6720656e642074696d65206d75737420626520616674657220766f60008201527f74696e672073746172742074696d650000000000000000000000000000000000602082015250565b600061210a602f83611840565b9150612115826120ae565b604082019050919050565b60006020820190508181036000830152612139816120fd565b9050919050565b7f7069636b20612074696d652061206c6974746c6520686967686572207468616e60008201527f207468652063757272656e742074696d65000000000000000000000000000000602082015250565b600061219c603183611840565b91506121a782612140565b604082019050919050565b600060208201905081810360008301526121cb8161218f565b9050919050565b7f566f7465722068617320616c7265616479207265676973746572656400000000600082015250565b6000612208601c83611840565b9150612213826121d2565b602082019050919050565b60006020820190508181036000830152612237816121fb565b905091905056fea2646970667358221220a8b78cf64e0a4b5d0094072e255ea5bdda6da9ef16c991ba85745650b024490b64736f6c63430008090033",
  "linkReferences": {},
  "deployedLinkReferences": {}
}