{
  "_format": "hh-sol-artifact-1",
  "contractName": "Election",
  "sourceName": "contracts/votingSC.sol",
  "abi": [
    {
      "inputs": [],
      "stateMutability": "nonpayable",
      "type": "constructor"
    },
    {
      "inputs": [],
      "name": "admin",
      "outputs": [
        {
          "internalType": "address",
          "name": "",
          "type": "address"
        }
      ],
      "stateMutability": "view",
      "type": "function"
    },
    {
      "inputs": [
        {
          "internalType": "uint256",
          "name": "",
          "type": "uint256"
        }
      ],
      "name": "candidates",
      "outputs": [
        {
          "internalType": "string",
          "name": "name",
          "type": "string"
        },
        {
          "internalType": "uint256",
          "name": "voteCount",
          "type": "uint256"
        }
      ],
      "stateMutability": "view",
      "type": "function"
    },
    {
      "inputs": [
        {
          "internalType": "uint256",
          "name": "candidateIndex",
          "type": "uint256"
        }
      ],
      "name": "castVote",
      "outputs": [],
      "stateMutability": "nonpayable",
      "type": "function"
    },
    {
      "inputs": [
        {
          "internalType": "string[]",
          "name": "candidateNames",
          "type": "string[]"
        },
        {
          "internalType": "uint256",
          "name": "votingStartTime",
          "type": "uint256"
        },
        {
          "internalType": "uint256",
          "name": "votingEndTime",
          "type": "uint256"
        },
        {
          "internalType": "uint256",
          "name": "minVotes",
          "type": "uint256"
        }
      ],
      "name": "contestants",
      "outputs": [],
      "stateMutability": "nonpayable",
      "type": "function"
    },
    {
      "inputs": [],
      "name": "endVoting",
      "outputs": [],
      "stateMutability": "nonpayable",
      "type": "function"
    },
    {
      "inputs": [
        {
          "internalType": "uint256",
          "name": "candidateIndex",
          "type": "uint256"
        }
      ],
      "name": "getCandidate",
      "outputs": [
        {
          "internalType": "string",
          "name": "",
          "type": "string"
        },
        {
          "internalType": "uint256",
          "name": "",
          "type": "uint256"
        }
      ],
      "stateMutability": "view",
      "type": "function"
    },
    {
      "inputs": [],
      "name": "getCandidateCount",
      "outputs": [
        {
          "internalType": "uint256",
          "name": "",
          "type": "uint256"
        }
      ],
      "stateMutability": "view",
      "type": "function"
    },
    {
      "inputs": [],
      "name": "getVoterHasVoted",
      "outputs": [
        {
          "internalType": "bool",
          "name": "",
          "type": "bool"
        }
      ],
      "stateMutability": "view",
      "type": "function"
    },
    {
      "inputs": [],
      "name": "getWinner",
      "outputs": [
        {
          "internalType": "string",
          "name": "",
          "type": "string"
        }
      ],
      "stateMutability": "view",
      "type": "function"
    },
    {
      "inputs": [],
      "name": "isVotingOpen",
      "outputs": [
        {
          "internalType": "bool",
          "name": "",
          "type": "bool"
        }
      ],
      "stateMutability": "view",
      "type": "function"
    },
    {
      "inputs": [],
      "name": "minimumVotes",
      "outputs": [
        {
          "internalType": "uint256",
          "name": "",
          "type": "uint256"
        }
      ],
      "stateMutability": "view",
      "type": "function"
    },
    {
      "inputs": [],
      "name": "registerVoter",
      "outputs": [],
      "stateMutability": "nonpayable",
      "type": "function"
    },
    {
      "inputs": [],
      "name": "totalVotes",
      "outputs": [
        {
          "internalType": "uint256",
          "name": "",
          "type": "uint256"
        }
      ],
      "stateMutability": "view",
      "type": "function"
    },
    {
      "inputs": [
        {
          "internalType": "address",
          "name": "",
          "type": "address"
        }
      ],
      "name": "voters",
      "outputs": [
        {
          "internalType": "bool",
          "name": "isRegistered",
          "type": "bool"
        },
        {
          "internalType": "bool",
          "name": "hasVoted",
          "type": "bool"
        },
        {
          "internalType": "uint256",
          "name": "votedFor",
          "type": "uint256"
        }
      ],
      "stateMutability": "view",
      "type": "function"
    },
    {
      "inputs": [],
      "name": "votingEnd",
      "outputs": [
        {
          "internalType": "uint256",
          "name": "",
          "type": "uint256"
        }
      ],
      "stateMutability": "view",
      "type": "function"
    },
    {
      "inputs": [],
      "name": "votingStart",
      "outputs": [
        {
          "internalType": "uint256",
          "name": "",
          "type": "uint256"
        }
      ],
      "stateMutability": "view",
      "type": "function"
    }
  ],
  "bytecode": "0x608060405234801561001057600080fd5b50336000806101000a81548173ffffffffffffffffffffffffffffffffffffffff021916908373ffffffffffffffffffffffffffffffffffffffff160217905550611ac1806100606000396000f3fe608060405234801561001057600080fd5b50600436106101005760003560e01c80638e7ea5b211610097578063ecb617d911610066578063ecb617d91461028f578063f258793614610299578063f851a440146102b7578063fa7f1bae146102d557610100565b80638e7ea5b214610219578063a3ec138d14610237578063c3403ddf14610269578063caaea3e41461027357610100565b806335b8e820116100d357806335b8e820146101905780633eb76b9c146101c15780636407e0d4146101dd57806385a38635146101fb57610100565b80630d15fd7714610105578063101158af1461012357806330a56347146101415780633477ee2e1461015f575b600080fd5b61010d6102f3565b60405161011a9190610f60565b60405180910390f35b61012b6102f9565b6040516101389190610f60565b60405180910390f35b6101496102ff565b6040516101569190610f60565b60405180910390f35b61017960048036038101906101749190610fbb565b61030c565b604051610187929190611081565b60405180910390f35b6101aa60048036038101906101a59190610fbb565b6103c8565b6040516101b8929190611081565b60405180910390f35b6101db60048036038101906101d69190610fbb565b6104f3565b005b6101e561079f565b6040516101f29190610f60565b60405180910390f35b6102036107a5565b6040516102109190610f60565b60405180910390f35b6102216107ab565b60405161022e91906110b1565b60405180910390f35b610251600480360381019061024c9190611131565b610932565b60405161026093929190611179565b60405180910390f35b610271610976565b005b61028d600480360381019061028891906113cb565b610aad565b005b610297610cdb565b005b6102a1610e16565b6040516102ae919061144e565b60405180910390f35b6102bf610e6d565b6040516102cc9190611478565b60405180910390f35b6102dd610e91565b6040516102ea919061144e565b60405180910390f35b60075481565b60035481565b6000600280549050905090565b6002818154811061031c57600080fd5b906000526020600020906002020160009150905080600001805461033f906114c2565b80601f016020809104026020016040519081016040528092919081815260200182805461036b906114c2565b80156103b85780601f1061038d576101008083540402835291602001916103b8565b820191906000526020600020905b81548152906001019060200180831161039b57829003601f168201915b5050505050908060010154905082565b606060006002805490508310610413576040517f08c379a000000000000000000000000000000000000000000000000000000000815260040161040a90611540565b60405180910390fd5b6002838154811061042757610426611560565b5b90600052602060002090600202016000016002848154811061044c5761044b611560565b5b90600052602060002090600202016001015481805461046a906114c2565b80601f0160208091040260200160405190810160405280929190818152602001828054610496906114c2565b80156104e35780601f106104b8576101008083540402835291602001916104e3565b820191906000526020600020905b8154815290600101906020018083116104c657829003601f168201915b5050505050915091509150915091565b600660009054906101000a900460ff16610542576040517f08c379a0000000000000000000000000000000000000000000000000000000008152600401610539906115db565b60405180910390fd5b600160003373ffffffffffffffffffffffffffffffffffffffff1673ffffffffffffffffffffffffffffffffffffffff16815260200190815260200160002060000160009054906101000a900460ff166105d1576040517f08c379a00000000000000000000000000000000000000000000000000000000081526004016105c890611647565b60405180910390fd5b600160003373ffffffffffffffffffffffffffffffffffffffff1673ffffffffffffffffffffffffffffffffffffffff16815260200190815260200160002060000160019054906101000a900460ff1615610661576040517f08c379a0000000000000000000000000000000000000000000000000000000008152600401610658906116b3565b60405180910390fd5b60028054905081106106a8576040517f08c379a000000000000000000000000000000000000000000000000000000000815260040161069f90611540565b60405180910390fd5b60018060003373ffffffffffffffffffffffffffffffffffffffff1673ffffffffffffffffffffffffffffffffffffffff16815260200190815260200160002060000160016101000a81548160ff02191690831515021790555080600160003373ffffffffffffffffffffffffffffffffffffffff1673ffffffffffffffffffffffffffffffffffffffff168152602001908152602001600020600101819055506002818154811061075d5761075c611560565b5b9060005260206000209060020201600101600081548092919061077f90611702565b91905055506007600081548092919061079790611702565b919050555050565b60055481565b60045481565b6060600660009054906101000a900460ff16156107fd576040517f08c379a00000000000000000000000000000000000000000000000000000000081526004016107f490611797565b60405180910390fd5b60008060005b60028054905081101561087c57826002828154811061082557610824611560565b5b9060005260206000209060020201600101541115610869576002818154811061085157610850611560565b5b90600052602060002090600202016001015492508091505b808061087490611702565b915050610803565b506002818154811061089157610890611560565b5b906000526020600020906002020160000180546108ad906114c2565b80601f01602080910402602001604051908101604052809291908181526020018280546108d9906114c2565b80156109265780601f106108fb57610100808354040283529160200191610926565b820191906000526020600020905b81548152906001019060200180831161090957829003601f168201915b50505050509250505090565b60016020528060005260406000206000915090508060000160009054906101000a900460ff16908060000160019054906101000a900460ff16908060010154905083565b60008054906101000a900473ffffffffffffffffffffffffffffffffffffffff1673ffffffffffffffffffffffffffffffffffffffff163373ffffffffffffffffffffffffffffffffffffffff1614610a04576040517f08c379a00000000000000000000000000000000000000000000000000000000081526004016109fb90611803565b60405180910390fd5b600454421015610a49576040517f08c379a0000000000000000000000000000000000000000000000000000000008152600401610a4090611797565b60405180910390fd5b6005546007541015610a90576040517f08c379a0000000000000000000000000000000000000000000000000000000008152600401610a879061186f565b60405180910390fd5b6000600660006101000a81548160ff021916908315150217905550565b60008054906101000a900473ffffffffffffffffffffffffffffffffffffffff1673ffffffffffffffffffffffffffffffffffffffff163373ffffffffffffffffffffffffffffffffffffffff1614610b3b576040517f08c379a0000000000000000000000000000000000000000000000000000000008152600401610b32906118db565b60405180910390fd5b6000845111610b7f576040517f08c379a0000000000000000000000000000000000000000000000000000000008152600401610b769061196d565b60405180910390fd5b818310610bc1576040517f08c379a0000000000000000000000000000000000000000000000000000000008152600401610bb8906119ff565b60405180910390fd5b336000806101000a81548173ffffffffffffffffffffffffffffffffffffffff021916908373ffffffffffffffffffffffffffffffffffffffff16021790555060005b8451811015610ca45760026040518060400160405280878481518110610c2d57610c2c611560565b5b60200260200101518152602001600081525090806001815401808255809150506001900390600052602060002090600202016000909190919091506000820151816000019080519060200190610c84929190610ea4565b506020820151816001015550508080610c9c90611702565b915050610c04565b508260038190555081600481905550806005819055506001600660006101000a81548160ff02191690831515021790555050505050565b600660009054906101000a900460ff16610d2a576040517f08c379a0000000000000000000000000000000000000000000000000000000008152600401610d21906115db565b60405180910390fd5b600160003373ffffffffffffffffffffffffffffffffffffffff1673ffffffffffffffffffffffffffffffffffffffff16815260200190815260200160002060000160009054906101000a900460ff1615610dba576040517f08c379a0000000000000000000000000000000000000000000000000000000008152600401610db190611a6b565b60405180910390fd5b60018060003373ffffffffffffffffffffffffffffffffffffffff1673ffffffffffffffffffffffffffffffffffffffff16815260200190815260200160002060000160006101000a81548160ff021916908315150217905550565b6000600160003373ffffffffffffffffffffffffffffffffffffffff1673ffffffffffffffffffffffffffffffffffffffff16815260200190815260200160002060000160019054906101000a900460ff16905090565b60008054906101000a900473ffffffffffffffffffffffffffffffffffffffff1681565b600660009054906101000a900460ff1681565b828054610eb0906114c2565b90600052602060002090601f016020900481019282610ed25760008555610f19565b82601f10610eeb57805160ff1916838001178555610f19565b82800160010185558215610f19579182015b82811115610f18578251825591602001919060010190610efd565b5b509050610f269190610f2a565b5090565b5b80821115610f43576000816000905550600101610f2b565b5090565b6000819050919050565b610f5a81610f47565b82525050565b6000602082019050610f756000830184610f51565b92915050565b6000604051905090565b600080fd5b600080fd5b610f9881610f47565b8114610fa357600080fd5b50565b600081359050610fb581610f8f565b92915050565b600060208284031215610fd157610fd0610f85565b5b6000610fdf84828501610fa6565b91505092915050565b600081519050919050565b600082825260208201905092915050565b60005b83811015611022578082015181840152602081019050611007565b83811115611031576000848401525b50505050565b6000601f19601f8301169050919050565b600061105382610fe8565b61105d8185610ff3565b935061106d818560208601611004565b61107681611037565b840191505092915050565b6000604082019050818103600083015261109b8185611048565b90506110aa6020830184610f51565b9392505050565b600060208201905081810360008301526110cb8184611048565b905092915050565b600073ffffffffffffffffffffffffffffffffffffffff82169050919050565b60006110fe826110d3565b9050919050565b61110e816110f3565b811461111957600080fd5b50565b60008135905061112b81611105565b92915050565b60006020828403121561114757611146610f85565b5b60006111558482850161111c565b91505092915050565b60008115159050919050565b6111738161115e565b82525050565b600060608201905061118e600083018661116a565b61119b602083018561116a565b6111a86040830184610f51565b949350505050565b600080fd5b7f4e487b7100000000000000000000000000000000000000000000000000000000600052604160045260246000fd5b6111ed82611037565b810181811067ffffffffffffffff8211171561120c5761120b6111b5565b5b80604052505050565b600061121f610f7b565b905061122b82826111e4565b919050565b600067ffffffffffffffff82111561124b5761124a6111b5565b5b602082029050602081019050919050565b600080fd5b600080fd5b600067ffffffffffffffff821115611281576112806111b5565b5b61128a82611037565b9050602081019050919050565b82818337600083830152505050565b60006112b96112b484611266565b611215565b9050828152602081018484840111156112d5576112d4611261565b5b6112e0848285611297565b509392505050565b600082601f8301126112fd576112fc6111b0565b5b813561130d8482602086016112a6565b91505092915050565b600061132961132484611230565b611215565b9050808382526020820190506020840283018581111561134c5761134b61125c565b5b835b8181101561139357803567ffffffffffffffff811115611371576113706111b0565b5b80860161137e89826112e8565b8552602085019450505060208101905061134e565b5050509392505050565b600082601f8301126113b2576113b16111b0565b5b81356113c2848260208601611316565b91505092915050565b600080600080608085870312156113e5576113e4610f85565b5b600085013567ffffffffffffffff81111561140357611402610f8a565b5b61140f8782880161139d565b945050602061142087828801610fa6565b935050604061143187828801610fa6565b925050606061144287828801610fa6565b91505092959194509250565b6000602082019050611463600083018461116a565b92915050565b611472816110f3565b82525050565b600060208201905061148d6000830184611469565b92915050565b7f4e487b7100000000000000000000000000000000000000000000000000000000600052602260045260246000fd5b600060028204905060018216806114da57607f821691505b602082108114156114ee576114ed611493565b5b50919050565b7f496e76616c69642063616e64696461746520696e646578000000000000000000600082015250565b600061152a601783610ff3565b9150611535826114f4565b602082019050919050565b600060208201905081810360008301526115598161151d565b9050919050565b7f4e487b7100000000000000000000000000000000000000000000000000000000600052603260045260246000fd5b7f566f74696e6720697320636c6f73656400000000000000000000000000000000600082015250565b60006115c5601083610ff3565b91506115d08261158f565b602082019050919050565b600060208201905081810360008301526115f4816115b8565b9050919050565b7f566f746572206973206e6f742072656769737465726564000000000000000000600082015250565b6000611631601783610ff3565b915061163c826115fb565b602082019050919050565b6000602082019050818103600083015261166081611624565b9050919050565b7f566f7465722068617320616c726561647920766f746564000000000000000000600082015250565b600061169d601783610ff3565b91506116a882611667565b602082019050919050565b600060208201905081810360008301526116cc81611690565b9050919050565b7f4e487b7100000000000000000000000000000000000000000000000000000000600052601160045260246000fd5b600061170d82610f47565b91507fffffffffffffffffffffffffffffffffffffffffffffffffffffffffffffffff8214156117405761173f6116d3565b5b600182019050919050565b7f566f74696e6720686173206e6f7420656e646564207965740000000000000000600082015250565b6000611781601883610ff3565b915061178c8261174b565b602082019050919050565b600060208201905081810360008301526117b081611774565b9050919050565b7f4f6e6c792061646d696e2063616e20656e6420766f74696e6700000000000000600082015250565b60006117ed601983610ff3565b91506117f8826117b7565b602082019050919050565b6000602082019050818103600083015261181c816117e0565b9050919050565b7f4e6f7420656e6f75676820766f74657300000000000000000000000000000000600082015250565b6000611859601083610ff3565b915061186482611823565b602082019050919050565b600060208201905081810360008301526118888161184c565b9050919050565b7f596f7520617265206e6f7420746865206f776e65720000000000000000000000600082015250565b60006118c5601583610ff3565b91506118d08261188f565b602082019050919050565b600060208201905081810360008301526118f4816118b8565b9050919050565b7f5468657265206d757374206265206174206c65617374206f6e652063616e646960008201527f6461746500000000000000000000000000000000000000000000000000000000602082015250565b6000611957602483610ff3565b9150611962826118fb565b604082019050919050565b600060208201905081810360008301526119868161194a565b9050919050565b7f566f74696e6720656e642074696d65206d75737420626520616674657220766f60008201527f74696e672073746172742074696d650000000000000000000000000000000000602082015250565b60006119e9602f83610ff3565b91506119f48261198d565b604082019050919050565b60006020820190508181036000830152611a18816119dc565b9050919050565b7f566f7465722068617320616c7265616479207265676973746572656400000000600082015250565b6000611a55601c83610ff3565b9150611a6082611a1f565b602082019050919050565b60006020820190508181036000830152611a8481611a48565b905091905056fea2646970667358221220c261cc2d5402a3a444b72d28813556433dcf74887c07eafaeb8a497d1f4b7c5e64736f6c63430008090033",
  "linkReferences": {},
  "deployedLinkReferences": {}
}